{"abi":[{"type":"constructor","inputs":[],"stateMutability":"nonpayable"},{"type":"function","name":"CHALLENGER","inputs":[],"outputs":[{"name":"","type":"address","internalType":"address"}],"stateMutability":"view"},{"type":"function","name":"FINALIZATION_PERIOD_SECONDS","inputs":[],"outputs":[{"name":"","type":"uint256","internalType":"uint256"}],"stateMutability":"view"},{"type":"function","name":"L2_BLOCK_TIME","inputs":[],"outputs":[{"name":"","type":"uint256","internalType":"uint256"}],"stateMutability":"view"},{"type":"function","name":"PROPOSER","inputs":[],"outputs":[{"name":"","type":"address","internalType":"address"}],"stateMutability":"view"},{"type":"function","name":"SUBMISSION_INTERVAL","inputs":[],"outputs":[{"name":"","type":"uint256","internalType":"uint256"}],"stateMutability":"view"},{"type":"function","name":"chainId","inputs":[],"outputs":[{"name":"","type":"uint256","internalType":"uint256"}],"stateMutability":"view"},{"type":"function","name":"challenger","inputs":[],"outputs":[{"name":"","type":"address","internalType":"address"}],"stateMutability":"view"},{"type":"function","name":"checkpointBlockHash","inputs":[{"name":"_blockNumber","type":"uint256","internalType":"uint256"},{"name":"_blockHash","type":"bytes32","internalType":"bytes32"}],"outputs":[],"stateMutability":"nonpayable"},{"type":"function","name":"computeL2Timestamp","inputs":[{"name":"_l2BlockNumber","type":"uint256","internalType":"uint256"}],"outputs":[{"name":"","type":"uint256","internalType":"uint256"}],"stateMutability":"view"},{"type":"function","name":"deleteL2Outputs","inputs":[{"name":"_l2OutputIndex","type":"uint256","internalType":"uint256"}],"outputs":[],"stateMutability":"nonpayable"},{"type":"function","name":"finalizationPeriodSeconds","inputs":[],"outputs":[{"name":"","type":"uint256","internalType":"uint256"}],"stateMutability":"view"},{"type":"function","name":"getL2Output","inputs":[{"name":"_l2OutputIndex","type":"uint256","internalType":"uint256"}],"outputs":[{"name":"","type":"tuple","internalType":"struct Types.OutputProposal","components":[{"name":"outputRoot","type":"bytes32","internalType":"bytes32"},{"name":"timestamp","type":"uint128","internalType":"uint128"},{"name":"l2BlockNumber","type":"uint128","internalType":"uint128"}]}],"stateMutability":"view"},{"type":"function","name":"getL2OutputAfter","inputs":[{"name":"_l2BlockNumber","type":"uint256","internalType":"uint256"}],"outputs":[{"name":"","type":"tuple","internalType":"struct Types.OutputProposal","components":[{"name":"outputRoot","type":"bytes32","internalType":"bytes32"},{"name":"timestamp","type":"uint128","internalType":"uint128"},{"name":"l2BlockNumber","type":"uint128","internalType":"uint128"}]}],"stateMutability":"view"},{"type":"function","name":"getL2OutputIndexAfter","inputs":[{"name":"_l2BlockNumber","type":"uint256","internalType":"uint256"}],"outputs":[{"name":"","type":"uint256","internalType":"uint256"}],"stateMutability":"view"},{"type":"function","name":"historicBlockHashes","inputs":[{"name":"","type":"uint256","internalType":"uint256"}],"outputs":[{"name":"","type":"bytes32","internalType":"bytes32"}],"stateMutability":"view"},{"type":"function","name":"initialize","inputs":[{"name":"_submissionInterval","type":"uint256","internalType":"uint256"},{"name":"_l2BlockTime","type":"uint256","internalType":"uint256"},{"name":"_startingBlockNumber","type":"uint256","internalType":"uint256"},{"name":"_startingTimestamp","type":"uint256","internalType":"uint256"},{"name":"_proposer","type":"address","internalType":"address"},{"name":"_challenger","type":"address","internalType":"address"},{"name":"_finalizationPeriodSeconds","type":"uint256","internalType":"uint256"},{"name":"_zkInitParams","type":"tuple","internalType":"struct ZKL2OutputOracle.ZKInitParams","components":[{"name":"chainId","type":"uint256","internalType":"uint256"},{"name":"vkey","type":"bytes32","internalType":"bytes32"},{"name":"verifierGateway","type":"address","internalType":"address"},{"name":"startingOutputRoot","type":"bytes32","internalType":"bytes32"},{"name":"owner","type":"address","internalType":"address"}]}],"outputs":[],"stateMutability":"nonpayable"},{"type":"function","name":"l2BlockTime","inputs":[],"outputs":[{"name":"","type":"uint256","internalType":"uint256"}],"stateMutability":"view"},{"type":"function","name":"latestBlockNumber","inputs":[],"outputs":[{"name":"","type":"uint256","internalType":"uint256"}],"stateMutability":"view"},{"type":"function","name":"latestOutputIndex","inputs":[],"outputs":[{"name":"","type":"uint256","internalType":"uint256"}],"stateMutability":"view"},{"type":"function","name":"nextBlockNumber","inputs":[],"outputs":[{"name":"","type":"uint256","internalType":"uint256"}],"stateMutability":"view"},{"type":"function","name":"nextOutputIndex","inputs":[],"outputs":[{"name":"","type":"uint256","internalType":"uint256"}],"stateMutability":"view"},{"type":"function","name":"owner","inputs":[],"outputs":[{"name":"","type":"address","internalType":"address"}],"stateMutability":"view"},{"type":"function","name":"proposeL2Output","inputs":[{"name":"_outputRoot","type":"bytes32","internalType":"bytes32"},{"name":"_l2BlockNumber","type":"uint256","internalType":"uint256"},{"name":"_l1BlockHash","type":"bytes32","internalType":"bytes32"},{"name":"_l1BlockNumber","type":"uint256","internalType":"uint256"},{"name":"_proof","type":"bytes","internalType":"bytes"}],"outputs":[],"stateMutability":"payable"},{"type":"function","name":"proposer","inputs":[],"outputs":[{"name":"","type":"address","internalType":"address"}],"stateMutability":"view"},{"type":"function","name":"startingBlockNumber","inputs":[],"outputs":[{"name":"","type":"uint256","internalType":"uint256"}],"stateMutability":"view"},{"type":"function","name":"startingTimestamp","inputs":[],"outputs":[{"name":"","type":"uint256","internalType":"uint256"}],"stateMutability":"view"},{"type":"function","name":"submissionInterval","inputs":[],"outputs":[{"name":"","type":"uint256","internalType":"uint256"}],"stateMutability":"view"},{"type":"function","name":"transferOwnership","inputs":[{"name":"_newOwner","type":"address","internalType":"address"}],"outputs":[],"stateMutability":"nonpayable"},{"type":"function","name":"updateVKey","inputs":[{"name":"_vkey","type":"bytes32","internalType":"bytes32"}],"outputs":[],"stateMutability":"nonpayable"},{"type":"function","name":"updateVerifierGateway","inputs":[{"name":"_verifierGateway","type":"address","internalType":"address"}],"outputs":[],"stateMutability":"nonpayable"},{"type":"function","name":"verifierGateway","inputs":[],"outputs":[{"name":"","type":"address","internalType":"contract SP1VerifierGateway"}],"stateMutability":"view"},{"type":"function","name":"version","inputs":[],"outputs":[{"name":"","type":"string","internalType":"string"}],"stateMutability":"view"},{"type":"function","name":"vkey","inputs":[],"outputs":[{"name":"","type":"bytes32","internalType":"bytes32"}],"stateMutability":"view"},{"type":"event","name":"Initialized","inputs":[{"name":"version","type":"uint8","indexed":false,"internalType":"uint8"}],"anonymous":false},{"type":"event","name":"OutputProposed","inputs":[{"name":"outputRoot","type":"bytes32","indexed":true,"internalType":"bytes32"},{"name":"l2OutputIndex","type":"uint256","indexed":true,"internalType":"uint256"},{"name":"l2BlockNumber","type":"uint256","indexed":true,"internalType":"uint256"},{"name":"l1Timestamp","type":"uint256","indexed":false,"internalType":"uint256"}],"anonymous":false},{"type":"event","name":"OutputsDeleted","inputs":[{"name":"prevNextOutputIndex","type":"uint256","indexed":true,"internalType":"uint256"},{"name":"newNextOutputIndex","type":"uint256","indexed":true,"internalType":"uint256"}],"anonymous":false},{"type":"event","name":"OwnershipTransferred","inputs":[{"name":"previousOwner","type":"address","indexed":true,"internalType":"address"},{"name":"newOwner","type":"address","indexed":true,"internalType":"address"}],"anonymous":false},{"type":"event","name":"UpdatedVKey","inputs":[{"name":"oldVkey","type":"bytes32","indexed":true,"internalType":"bytes32"},{"name":"newVkey","type":"bytes32","indexed":true,"internalType":"bytes32"}],"anonymous":false},{"type":"event","name":"UpdatedVerifierGateway","inputs":[{"name":"oldVerifierGateway","type":"address","indexed":true,"internalType":"address"},{"name":"newVerifierGateway","type":"address","indexed":true,"internalType":"address"}],"anonymous":false}],"bytecode":{"object":"0x608060405234801561001057600080fd5b5061001961001e565b6100de565b600054610100900460ff161561008a5760405162461bcd60e51b815260206004820152602760248201527f496e697469616c697a61626c653a20636f6e747261637420697320696e697469604482015266616c697a696e6760c81b606482015260840160405180910390fd5b60005460ff90811610156100dc576000805460ff191660ff9081179091556040519081527f7f26b83ff96e1f2b6a682f133852f6798a09c465da95921460cefb38474024989060200160405180910390a15b565b6119e3806100ed6000396000f3fe6080604052600436106101ed5760003560e01c80639a8a05921161010d578063cf8e5cf0116100a0578063dcec33481161006f578063dcec334814610575578063e1a41bcf1461058a578063f2fde38b146105a0578063f4daa291146105c0578063fb3c491c146105d557600080fd5b8063cf8e5cf0146104f5578063d1de856c14610515578063d946a45614610535578063dbf330741461055557600080fd5b8063a9efd6b8116100dc578063a9efd6b814610498578063bffa7f0f146104ab578063c69b0eb1146104c9578063ce5db8d6146104df57600080fd5b80639a8a0592146103e2578063a196b525146103f8578063a25ae55714610425578063a8e4fb901461047857600080fd5b80636abcf563116101855780638878627211610154578063887862721461037657806389c44cbb1461038c5780638da5cb5b146103ac57806393991af3146103cc57600080fd5b80636abcf5631461030d5780636b4d98dd1461032257806370872aa5146103405780637f0064201461035657600080fd5b8063529933df116101c1578063529933df1461026d578063534db0e21461028257806354fd4d50146102ba57806369f16eec146102f857600080fd5b80622134cc146101f25780634418db5e146102165780634599c788146102385780634600df381461024d575b600080fd5b3480156101fe57600080fd5b506005545b6040519081526020015b60405180910390f35b34801561022257600080fd5b506102366102313660046115e5565b6105f5565b005b34801561024457600080fd5b50610203610634565b34801561025957600080fd5b50610236610268366004611677565b610691565b34801561027957600080fd5b50600454610203565b34801561028e57600080fd5b506006546102a2906001600160a01b031681565b6040516001600160a01b03909116815260200161020d565b3480156102c657600080fd5b506102eb604051806040016040528060058152602001640322e302e360dc1b81525081565b60405161020d919061178b565b34801561030457600080fd5b506102036109fe565b34801561031957600080fd5b50600354610203565b34801561032e57600080fd5b506006546001600160a01b03166102a2565b34801561034c57600080fd5b5061020360015481565b34801561036257600080fd5b5061020361037136600461179e565b610a10565b34801561038257600080fd5b5061020360025481565b34801561039857600080fd5b506102366103a736600461179e565b610bae565b3480156103b857600080fd5b50600c546102a2906001600160a01b031681565b3480156103d857600080fd5b5061020360055481565b3480156103ee57600080fd5b5061020360095481565b34801561040457600080fd5b5061020361041336600461179e565b600d6020526000908152604090205481565b34801561043157600080fd5b5061044561044036600461179e565b610db3565b60408051825181526020808401516001600160801b0390811691830191909152928201519092169082015260600161020d565b34801561048457600080fd5b506007546102a2906001600160a01b031681565b6102366104a63660046117b7565b610e31565b3480156104b757600080fd5b506007546001600160a01b03166102a2565b3480156104d557600080fd5b50610203600a5481565b3480156104eb57600080fd5b5061020360085481565b34801561050157600080fd5b5061044561051036600461179e565b611357565b34801561052157600080fd5b5061020361053036600461179e565b61138f565b34801561054157600080fd5b5061023661055036600461179e565b6113bf565b34801561056157600080fd5b50610236610570366004611873565b6113f2565b34801561058157600080fd5b5061020361147a565b34801561059657600080fd5b5061020360045481565b3480156105ac57600080fd5b506102366105bb3660046115e5565b611491565b3480156105cc57600080fd5b50600854610203565b3480156105e157600080fd5b50600b546102a2906001600160a01b031681565b600c546001600160a01b031633146106285760405162461bcd60e51b815260040161061f90611895565b60405180910390fd5b610631816114dd565b50565b60035460009015610688576003805461064f906001906118f2565b8154811061065f5761065f611909565b6000918252602090912060029091020160010154600160801b90046001600160801b0316919050565b6001545b905090565b600054600290610100900460ff161580156106b3575060005460ff8083169116105b6107165760405162461bcd60e51b815260206004820152602e60248201527f496e697469616c697a61626c653a20636f6e747261637420697320616c72656160448201526d191e481a5b9a5d1a585b1a5e995960921b606482015260840161061f565b6000805461ffff191660ff8316176101001790558861079d5760405162461bcd60e51b815260206004820152603a60248201527f4c324f75747075744f7261636c653a207375626d697373696f6e20696e74657260448201527f76616c206d7573742062652067726561746572207468616e2030000000000000606482015260840161061f565b6000881161080a5760405162461bcd60e51b815260206004820152603460248201527f4c324f75747075744f7261636c653a204c3220626c6f636b2074696d65206d75604482015273073742062652067726561746572207468616e20360641b606482015260840161061f565b4286111561088e5760405162461bcd60e51b8152602060048201526044602482018190527f4c324f75747075744f7261636c653a207374617274696e67204c322074696d65908201527f7374616d70206d757374206265206c657373207468616e2063757272656e742060648201526374696d6560e01b608482015260a40161061f565b60048990556005889055600780546001600160a01b038088166001600160a01b0319928316179092556006805492871692909116919091179055600883905560035460000361098557604080516060808201835284015181526001600160801b03808916602083019081528a82169383019384526003805460018181018355600092909252935160029485027fc2575a0e9e593c00f959f8c92f12db2869c3395a3b0502d05e2516446f71f85b810191909155915194518316600160801b0294909216939093177fc2575a0e9e593c00f959f8c92f12db2869c3395a3b0502d05e2516446f71f85c90930192909255908890558690555b8151600955608082015161099890611539565b6109a58260200151611595565b6109b282604001516114dd565b6000805461ff001916905560405160ff821681527f7f26b83ff96e1f2b6a682f133852f6798a09c465da95921460cefb38474024989060200160405180910390a1505050505050505050565b60035460009061068c906001906118f2565b6000610a1a610634565b821115610aa05760405162461bcd60e51b815260206004820152604860248201527f4c324f75747075744f7261636c653a2063616e6e6f7420676574206f7574707560448201527f7420666f72206120626c6f636b207468617420686173206e6f74206265656e206064820152671c1c9bdc1bdcd95960c21b608482015260a40161061f565b600354610b245760405162461bcd60e51b815260206004820152604660248201527f4c324f75747075744f7261636c653a2063616e6e6f7420676574206f7574707560448201527f74206173206e6f206f7574707574732068617665206265656e2070726f706f736064820152651959081e595d60d21b608482015260a40161061f565b6003546000905b80821015610ba75760006002610b41838561191f565b610b4b9190611937565b90508460038281548110610b6157610b61611909565b6000918252602090912060029091020160010154600160801b90046001600160801b03161015610b9d57610b9681600161191f565b9250610ba1565b8091505b50610b2b565b5092915050565b6006546001600160a01b03163314610c2e5760405162461bcd60e51b815260206004820152603e60248201527f4c324f75747075744f7261636c653a206f6e6c7920746865206368616c6c656e60448201527f67657220616464726573732063616e2064656c657465206f7574707574730000606482015260840161061f565b6003548110610cb15760405162461bcd60e51b815260206004820152604360248201527f4c324f75747075744f7261636c653a2063616e6e6f742064656c657465206f7560448201527f747075747320616674657220746865206c6174657374206f757470757420696e6064820152620c8caf60eb1b608482015260a40161061f565b60085460038281548110610cc757610cc7611909565b6000918252602090912060016002909202010154610cee906001600160801b0316426118f2565b10610d705760405162461bcd60e51b815260206004820152604660248201527f4c324f75747075744f7261636c653a2063616e6e6f742064656c657465206f7560448201527f74707574732074686174206861766520616c7265616479206265656e2066696e606482015265185b1a5e995960d21b608482015260a40161061f565b6000610d7b60035490565b90508160035581817f4ee37ac2c786ec85e87592d3c5c8a1dd66f8496dda3f125d9ea8ca5f657629b660405160405180910390a35050565b604080516060810182526000808252602082018190529181019190915260038281548110610de357610de3611909565b600091825260209182902060408051606081018252600290930290910180548352600101546001600160801b0380821694840194909452600160801b90049092169181019190915292915050565b6007546001600160a01b0316331480610e5357506007546001600160a01b0316155b610ecf5760405162461bcd60e51b815260206004820152604160248201527f4c324f75747075744f7261636c653a206f6e6c79207468652070726f706f736560448201527f7220616464726573732063616e2070726f706f7365206e6577206f75747075746064820152607360f81b608482015260a40161061f565b610ed761147a565b841015610f725760405162461bcd60e51b815260206004820152605860248201527f4c324f75747075744f7261636c653a20626c6f636b206e756d626572206d757360448201527f742062652067726561746572207468616e206f7220657175616c20746f206e6560648201527f787420657870656374656420626c6f636b206e756d6265720000000000000000608482015260a40161061f565b42610f7c8561138f565b10610fe85760405162461bcd60e51b815260206004820152603660248201527f4c324f75747075744f7261636c653a2063616e6e6f742070726f706f7365204c60448201527532206f757470757420696e207468652066757475726560501b606482015260840161061f565b8461105b5760405162461bcd60e51b815260206004820152603a60248201527f4c324f75747075744f7261636c653a204c32206f75747075742070726f706f7360448201527f616c2063616e6e6f7420626520746865207a65726f2068617368000000000000606482015260840161061f565b600a546110d05760405162461bcd60e51b815260206004820152603b60248201527f4c324f75747075744f7261636c653a20766b6579206d7573742062652073657460448201527f206265666f72652070726f706f73696e6720616e206f75747075740000000000606482015260840161061f565b6000828152600d6020526040902054831461115f5760405162461bcd60e51b815260206004820152604360248201527f4c324f75747075744f7261636c653a2070726f706f73656420626c6f636b206860448201527f61736820616e64206e756d62657220617265206e6f7420636865636b706f696e6064820152621d195960ea1b608482015260a40161061f565b60006040518060a001604052808581526020016003600161117f60035490565b61118991906118f2565b8154811061119957611199611909565b60009182526020918290206002909102015482528181018990526040808301899052600954606093840152600b54600a548251865181860152938601518484015291850151838501529284015160808084019190915284015160a08301529293506001600160a01b03909116916341493c609160c001604051602081830303815290604052856040518463ffffffff1660e01b815260040161123d93929190611959565b60006040518083038186803b15801561125557600080fd5b505afa158015611269573d6000803e3d6000fd5b505050508461127760035490565b877fa7aaf2512769da4e444e3de247be2564225c2e7a8f74cfe528e46e17d24868e2426040516112a991815260200190565b60405180910390a45050604080516060810182529485526001600160801b034281166020870190815294811691860191825260038054600181018255600091909152955160029096027fc2575a0e9e593c00f959f8c92f12db2869c3395a3b0502d05e2516446f71f85b810196909655935190518416600160801b029316929092177fc2575a0e9e593c00f959f8c92f12db2869c3395a3b0502d05e2516446f71f85c909301929092555050565b6040805160608101825260008082526020820181905291810191909152600361137f83610a10565b81548110610de357610de3611909565b6000600554600154836113a291906118f2565b6113ac919061198e565b6002546113b9919061191f565b92915050565b600c546001600160a01b031633146113e95760405162461bcd60e51b815260040161061f90611895565b61063181611595565b808240146114685760405162461bcd60e51b815260206004820152603c60248201527f4c324f75747075744f7261636c653a20626c6f636b206861736820616e64206e60448201527f756d6265722063616e6e6f7420626520636865636b706f696e74656400000000606482015260840161061f565b6000918252600d602052604090912055565b6000600454611487610634565b61068c919061191f565b600c546001600160a01b031633146114bb5760405162461bcd60e51b815260040161061f90611895565b600c80546001600160a01b0319166001600160a01b0392909216919091179055565b600b546040516001600160a01b038084169216907f1379941631ff0ed9178ab16ab67a2e5db3aeada7f87e518f761e79c8e38377e390600090a3600b80546001600160a01b0319166001600160a01b0392909216919091179055565b600c546040516001600160a01b038084169216907f8be0079c531659141344cd1fd0a4f28419497f9722a3daafe3b4186f6b6457e090600090a3600c80546001600160a01b0319166001600160a01b0392909216919091179055565b600a546040518291907f9950c7ae9575688726be5b8ba4f28af88f91a9ad6853bc02658104b62cfcd77d90600090a3600a55565b80356001600160a01b03811681146115e057600080fd5b919050565b6000602082840312156115f757600080fd5b611600826115c9565b9392505050565b634e487b7160e01b600052604160045260246000fd5b60405160a0810167ffffffffffffffff8111828210171561164057611640611607565b60405290565b604051601f8201601f1916810167ffffffffffffffff8111828210171561166f5761166f611607565b604052919050565b600080600080600080600080888a0361018081121561169557600080fd5b8935985060208a0135975060408a0135965060608a013595506116ba60808b016115c9565b94506116c860a08b016115c9565b935060c08a0135925060a060df19820112156116e357600080fd5b506116ec61161d565b60e08a013581526101008a0135602082015261170b6101208b016115c9565b60408201526101408a013560608201526117286101608b016115c9565b6080820152809150509295985092959890939650565b6000815180845260005b8181101561176457602081850181015186830182015201611748565b81811115611776576000602083870101525b50601f01601f19169290920160200192915050565b602081526000611600602083018461173e565b6000602082840312156117b057600080fd5b5035919050565b600080600080600060a086880312156117cf57600080fd5b8535945060208087013594506040870135935060608701359250608087013567ffffffffffffffff8082111561180457600080fd5b818901915089601f83011261181857600080fd5b81358181111561182a5761182a611607565b61183c601f8201601f19168501611646565b91508082528a8482850101111561185257600080fd5b80848401858401376000848284010152508093505050509295509295909350565b6000806040838503121561188657600080fd5b50508035926020909101359150565b60208082526027908201527f4c324f75747075744f7261636c653a2063616c6c6572206973206e6f74207468604082015266329037bbb732b960c91b606082015260800190565b634e487b7160e01b600052601160045260246000fd5b600082821015611904576119046118dc565b500390565b634e487b7160e01b600052603260045260246000fd5b60008219821115611932576119326118dc565b500190565b60008261195457634e487b7160e01b600052601260045260246000fd5b500490565b838152606060208201526000611972606083018561173e565b8281036040840152611984818561173e565b9695505050505050565b60008160001904831182151516156119a8576119a86118dc565b50029056fea264697066735822122034f1c741d22e96467b5cd4acf3fc1c1bdf4729d2a291cff2ce43260eb6a8888264736f6c634300080f0033","linkReferences":{}},"methodIdentifiers":{"CHALLENGER()":"6b4d98dd","FINALIZATION_PERIOD_SECONDS()":"f4daa291","L2_BLOCK_TIME()":"002134cc","PROPOSER()":"bffa7f0f","SUBMISSION_INTERVAL()":"529933df","chainId()":"9a8a0592","challenger()":"534db0e2","checkpointBlockHash(uint256,bytes32)":"dbf33074","computeL2Timestamp(uint256)":"d1de856c","deleteL2Outputs(uint256)":"89c44cbb","finalizationPeriodSeconds()":"ce5db8d6","getL2Output(uint256)":"a25ae557","getL2OutputAfter(uint256)":"cf8e5cf0","getL2OutputIndexAfter(uint256)":"7f006420","historicBlockHashes(uint256)":"a196b525","initialize(uint256,uint256,uint256,uint256,address,address,uint256,(uint256,bytes32,address,bytes32,address))":"4600df38","l2BlockTime()":"93991af3","latestBlockNumber()":"4599c788","latestOutputIndex()":"69f16eec","nextBlockNumber()":"dcec3348","nextOutputIndex()":"6abcf563","owner()":"8da5cb5b","proposeL2Output(bytes32,uint256,bytes32,uint256,bytes)":"a9efd6b8","proposer()":"a8e4fb90","startingBlockNumber()":"70872aa5","startingTimestamp()":"88786272","submissionInterval()":"e1a41bcf","transferOwnership(address)":"f2fde38b","updateVKey(bytes32)":"d946a456","updateVerifierGateway(address)":"4418db5e","verifierGateway()":"fb3c491c","version()":"54fd4d50","vkey()":"c69b0eb1"},"id":45}