{"abi":[{"type":"function","name":"addRoute","inputs":[{"name":"verifier","type":"address","internalType":"address"}],"outputs":[],"stateMutability":"nonpayable"},{"type":"function","name":"freezeRoute","inputs":[{"name":"selector","type":"bytes4","internalType":"bytes4"}],"outputs":[],"stateMutability":"nonpayable"},{"type":"function","name":"owner","inputs":[],"outputs":[{"name":"","type":"address","internalType":"address"}],"stateMutability":"view"},{"type":"function","name":"renounceOwnership","inputs":[],"outputs":[],"stateMutability":"nonpayable"},{"type":"function","name":"routes","inputs":[{"name":"","type":"bytes4","internalType":"bytes4"}],"outputs":[{"name":"verifier","type":"address","internalType":"address"},{"name":"frozen","type":"bool","internalType":"bool"}],"stateMutability":"view"},{"type":"function","name":"transferOwnership","inputs":[{"name":"newOwner","type":"address","internalType":"address"}],"outputs":[],"stateMutability":"nonpayable"},{"type":"function","name":"verifyProof","inputs":[{"name":"programVKey","type":"bytes32","internalType":"bytes32"},{"name":"publicValues","type":"bytes","internalType":"bytes"},{"name":"proofBytes","type":"bytes","internalType":"bytes"}],"outputs":[],"stateMutability":"view"},{"type":"event","name":"OwnershipTransferred","inputs":[{"name":"previousOwner","type":"address","indexed":true,"internalType":"address"},{"name":"newOwner","type":"address","indexed":true,"internalType":"address"}],"anonymous":false},{"type":"event","name":"RouteAdded","inputs":[{"name":"selector","type":"bytes4","indexed":false,"internalType":"bytes4"},{"name":"verifier","type":"address","indexed":false,"internalType":"address"}],"anonymous":false},{"type":"event","name":"RouteFrozen","inputs":[{"name":"selector","type":"bytes4","indexed":false,"internalType":"bytes4"},{"name":"verifier","type":"address","indexed":false,"internalType":"address"}],"anonymous":false},{"type":"error","name":"RouteAlreadyExists","inputs":[{"name":"verifier","type":"address","internalType":"address"}]},{"type":"error","name":"RouteIsFrozen","inputs":[{"name":"selector","type":"bytes4","internalType":"bytes4"}]},{"type":"error","name":"RouteNotFound","inputs":[{"name":"selector","type":"bytes4","internalType":"bytes4"}]},{"type":"error","name":"SelectorCannotBeZero","inputs":[]}],"bytecode":{"object":"0x608060405234801561001057600080fd5b5061001a3361001f565b61006f565b600080546001600160a01b038381166001600160a01b0319831681178455604051919092169283917f8be0079c531659141344cd1fd0a4f28419497f9722a3daafe3b4186f6b6457e09190a35050565b61081f8061007e6000396000f3fe608060405234801561001057600080fd5b506004361061007d5760003560e01c8063814856f41161005b578063814856f4146100f85780638c95ff1e1461010b5780638da5cb5b1461011e578063f2fde38b1461013957600080fd5b806341493c601461008257806351c7094f14610097578063715018a6146100f0575b600080fd5b61009561009036600461061d565b61014c565b005b6100cc6100a5366004610697565b6001602052600090815260409020546001600160a01b03811690600160a01b900460ff1682565b604080516001600160a01b0390931683529015156020830152015b60405180910390f35b61009561027c565b610095610106366004610697565b610290565b6100956101193660046106c8565b610373565b6000546040516001600160a01b0390911681526020016100e7565b6100956101473660046106c8565b6104b1565b600061015b60048284866106f1565b6101649161071b565b6001600160e01b031981166000908152600160209081526040918290208251808401909352546001600160a01b038116808452600160a01b90910460ff16151591830191909152919250906101dd576040516379043bbf60e11b81526001600160e01b0319831660048201526024015b60405180910390fd5b80602001511561020c5760405163ebf1082360e01b81526001600160e01b0319831660048201526024016101d4565b805160405163020a49e360e51b81526001600160a01b03909116906341493c6090610243908a908a908a908a908a90600401610774565b60006040518083038186803b15801561025b57600080fd5b505afa15801561026f573d6000803e3d6000fd5b5050505050505050505050565b61028461052a565b61028e6000610584565b565b61029861052a565b6001600160e01b03198116600090815260016020526040902080546001600160a01b03166102e5576040516379043bbf60e11b81526001600160e01b0319831660048201526024016101d4565b8054600160a01b900460ff161561031b5760405163ebf1082360e01b81526001600160e01b0319831660048201526024016101d4565b805460ff60a01b198116600160a01b1782556040517f63ad2363b183cb8bb562b9590c5b4428e2a566260df053db156576d3d171438d916103679185916001600160a01b0316906107ad565b60405180910390a15050565b61037b61052a565b6000816001600160a01b0316632a5104366040518163ffffffff1660e01b8152600401602060405180830381865afa1580156103bb573d6000803e3d6000fd5b505050506040513d601f19601f820116820180604052508101906103df91906107d0565b90506001600160e01b03198116610409576040516320acd28b60e01b815260040160405180910390fd5b6001600160e01b03198116600090815260016020526040902080546001600160a01b031615610459578054604051632b87e79760e01b81526001600160a01b0390911660048201526024016101d4565b80546001600160a01b0319166001600160a01b0384161781556040517fcb5cc54fa0fda41744197b286ab4135aec7c322cace32c4f55da723d2eb8eee6906104a490849086906107ad565b60405180910390a1505050565b6104b961052a565b6001600160a01b03811661051e5760405162461bcd60e51b815260206004820152602660248201527f4f776e61626c653a206e6577206f776e657220697320746865207a65726f206160448201526564647265737360d01b60648201526084016101d4565b61052781610584565b50565b6000546001600160a01b0316331461028e5760405162461bcd60e51b815260206004820181905260248201527f4f776e61626c653a2063616c6c6572206973206e6f7420746865206f776e657260448201526064016101d4565b600080546001600160a01b038381166001600160a01b0319831681178455604051919092169283917f8be0079c531659141344cd1fd0a4f28419497f9722a3daafe3b4186f6b6457e09190a35050565b60008083601f8401126105e657600080fd5b50813567ffffffffffffffff8111156105fe57600080fd5b60208301915083602082850101111561061657600080fd5b9250929050565b60008060008060006060868803121561063557600080fd5b85359450602086013567ffffffffffffffff8082111561065457600080fd5b61066089838a016105d4565b9096509450604088013591508082111561067957600080fd5b50610686888289016105d4565b969995985093965092949392505050565b6000602082840312156106a957600080fd5b81356001600160e01b0319811681146106c157600080fd5b9392505050565b6000602082840312156106da57600080fd5b81356001600160a01b03811681146106c157600080fd5b6000808585111561070157600080fd5b8386111561070e57600080fd5b5050820193919092039150565b6001600160e01b031981358181169160048510156107435780818660040360031b1b83161692505b505092915050565b81835281816020850137506000828201602090810191909152601f909101601f19169091010190565b85815260606020820152600061078e60608301868861074b565b82810360408401526107a181858761074b565b98975050505050505050565b6001600160e01b03199290921682526001600160a01b0316602082015260400190565b6000602082840312156107e257600080fd5b505191905056fea264697066735822122011616247f75c22e72a943bf92b14f744b86c0ac2497e29d4913fdbc8eed17d5864736f6c634300080f0033","linkReferences":{}},"methodIdentifiers":{"addRoute(address)":"8c95ff1e","freezeRoute(bytes4)":"814856f4","owner()":"8da5cb5b","renounceOwnership()":"715018a6","routes(bytes4)":"51c7094f","transferOwnership(address)":"f2fde38b","verifyProof(bytes32,bytes,bytes)":"41493c60"},"id":40}